:020000040800F2
:100000000050002049AE0008BD060008C3060008E5
:10001000C9060008CF060008D50600080000000049
:10002000000000000000000000000000A192000895
:10003000DB0600080000000071940008B994000875
:1000400091AE000891AE000891AE000891AE000894
:1000500091AE000891AE000891AE000891AE000884
:1000600091AE000891AE000891AE000891AE000874
:1000700091AE000891AE0008E9060008FD060008F0
:10008000110700082507000891AE000891AE00088E
:100090003907000891AE000891AE000891AE000843
:1000A00091AE00084D07000891AE000891AE00081F
:1000B00091AE000891AE000891AE000891AE000824
:1000C00091AE000891AE000891AE000891AE000814
:1000D00091AE0008610700087507000891AE00089E
:1000E00091AE000891AE000891AE0008000000003B
:1000F0000000000000000000000000000000000000
:0C01000000000000000000005FF808F1A3
:1001100010B5054C237833B9044B13B10448AFF341
:1001200000800123237010BD80010020000000002A
:10013000ECAE000808B5034B1BB103490348AFF30D
:10014000008008BD0000000084010020ECAE000823
:1001500080B582B000AF184A174B5B6943F00103CA
:100160005361154B5B6903F001037B607B680022E0
:1001700005210E2000F0A0FD0E2000F0C9FD002298
:1001800005210F2000F098FD0F2000F0C1FD002296
:100190000521102000F090FD102000F0B9FD002294
:1001A0000521112000F088FD112000F0B1FD00BFF5
:1001B0000837BD4680BD00BF0010024080B485B046
:1001C00000AFF860B9607A60FB68064A1A60BB68E5
:1001D000054A1A607B6880221A6000BF1437BD464A
:1001E00080BC70479C010020F0010020B0B59CB09D
:1001F00000AF274B07F154041D460FCD0FC495E8FF
:10020000070084E8070007F154030021184608F0AE
:10021000E1FE02461F4B1A601F4B07F138041D46D2
:100220000FCD0FC495E8070084E8070007F13803F5
:100230000021184608F0CEFE0246184B1A60184BF3
:1002400007F11C041D460FCD0FC495E8070084E894
:10025000070007F11C030021184608F0BBFE024608
:10026000104B1A60104B3C461D460FCD0FC495E84D
:10027000070084E807003B460021184608F0AAFE64
:1002800002460A4B1A6000BF7037BD46B0BD00BFC2
:1002900008AF0008F814002028AF0008041500205B
:1002A0004CAF00080015002074AF0008FC140020BB
:1002B00080B582B000AF78600AF028F84FF4FA7089
:1002C00008F0D4FE00224FF40051074801F0D6FA9E
:1002D0004FF4FA7008F0CAFE01224FF400510248B0
:1002E00001F0CCFAEAE700BF0010014080B582B00F
:1002F00000AF78604FF4FA6008F0B8FEFAE780B516
:1003000082B000AF78604FF47A7008F0AFFE0AF068
:10031000DFFCF8E780B582B000AF78604FF4FA7088
:1003200008F0A4FE00224FF40051074801F0A6FA9D
:100330004FF4FA7008F09AFE01224FF4005102487F
:1003400001F09CFAEAE700BF0010014080B588B0D8
:1003500000AF07F1100300221A605A609A60DA6059
:100360003E4A3E4B9B6943F0100393613B4B9B69B4
:1003700003F01003FB60FB68384A384B9B6943F07D
:1003800020039361354B9B6903F02003BB60BB687E
:10039000324A324B9B6943F0040393612F4B9B69B4
:1003A00003F004037B607B682C4A2C4B9B6943F071
:1003B00008039361294B9B6903F008033B603B688A
:1003C00001224FF40051264801F058FA0022722110
:1003D000244801F053FA4FF400533B6101237B6141
:1003E0000023BB610223FB6107F1100319461C487F
:1003F00001F00AF84FF440433B6103237B6107F1AE
:1004000010031946164800F0FFFF72233B610123D9
:100410007B610023BB610223FB6107F110031946D6
:10042000104800F0F1FF48F280133B6103237B6129
:1004300007F1100319460B4800F0E6FF4FF6F7737B
:100440003B6103237B6107F110031946064800F066
:10045000DBFF00BF2037BD4680BD00BF001002405B
:100460000010014000080140000C014080B500AFC1
:1004700000F028FB00F018F8FFF768FFFFF768FEB0
:1004800000F08EF900F0B6F900F084F90122202185
:10049000044801F0F3F90AF0C7FCFFF7A7FE08F0E3
:1004A00092FDFEE70008014080B594B000AF07F16F
:1004B00028032822002118460AF010FD07F1140332
:1004C00000221A605A609A60DA601A613B1D0022AD
:1004D0001A605A609A60DA600123BB624FF480337D
:1004E000FB6200233B630123BB6302237B644FF465
:1004F0008033BB644FF48013FB6407F12803184674
:1005000002F0DEFE0346002B01D000F03BF80F2383
:100510007B610223BB610023FB614FF480633B627C
:1005200000237B6207F114030121184603F038FA17
:100530000346002B01D000F025F810237B604FF418
:1005400080033B613B1D184603F0AEFC0346002BC5
:1005500001D000F017F800BF5037BD4680BD000045
:1005600080B582B000AF78607B681B68044A934214
:1005700001D100F0BDFA00BF0837BD4680BD00BF05
:10058000002C014080B400AF72B6FEE780B483B0A7
:1005900000AF7860396000BF0C37BD4680BC704743
:1005A00080B584B000AF184A174B9B6943F0010334
:1005B0009361154B9B6903F00103BB60BB68124A52
:1005C000114BDB6943F08053D3610F4BDB6903F0C0
:1005D00080537B607B6800220F216FF0010000F0E8
:1005E0006BFB0A4B5B68FB60FB6823F0E063FB601E
:1005F000FB6843F00073FB60044AFB68536000BF74
:100600001037BD4680BD00BF001002400000014011
:1006100080B58CB000AF78600023FB620023BB6222
:1006200000227968192000F047FB192000F070FBC8
:100630001E4A1E4B9B6943F4006393611B4B9B69ED
:1006400003F40063FB60FB6807F1100207F1140379
:100650001146184603F0C8FB03F0B2FBF862FB6AD0
:10066000134AA2FB03239B0C013BBB62114B124AB2
:100670001A60104B40F2E732DA600E4ABB6A5360F0
:100680000C4B00221A610B4B00229A60094803F0C0
:1006900015FD0346002B04D1064803F0C3FD0346B5
:1006A00000E0012318463037BD4680BD00100240EF
:1006B00083DE1B4308150020002C014080B400AFEE
:1006C000FEE780B400AFFEE780B400AFFEE780B481
:1006D00000AFFEE780B400AFFEE780B400AF00BF1C
:1006E000BD4680BC7047000080B500AF024800F0F6
:1006F0004BFD00BF80BD00BF9415002080B500AF4A
:10070000024800F041FD00BF80BD00BFD8150020A9
:1007100080B500AF024800F037FD00BF80BD00BFCC
:100720005015002080B500AF024800F02DFD00BF3D
:1007300080BD00BF1C16002080B500AF024801F04C
:100740000DFA00BF80BD00BF781C002080B500AF4F
:10075000024803F0D3FD00BF80BD00BF0815002094
:1007600080B500AF024804F0CDF800BF80BD00BFE7
:100770006016002080B500AF024804F0C3F800BF47
:1007800080BD00BFA416002080B400AF00BFBD46EE
:1007900080BC704780B400AF00BFBD4680BC7047CE
:1007A00080B500AF114B124A1A60104B4FF416522D
:1007B0005A600E4B00229A600C4B0022DA600B4B01
:1007C00000221A61094B0C225A61084B00229A61DF
:1007D000064B0022DA61054803F030FF0346002B88
:1007E00001D0FFF7CFFE00BF80BD00BF6016002024
:1007F0000038014080B500AF114B124A1A60104B0F
:100800004FF4E1325A600E4B00229A600C4B0022EA
:10081000DA600B4B00221A61094B0C225A61084B1B
:1008200000229A61064B0022DA61054803F006FFB8
:100830000346002B01D0FFF7A5FE00BF80BD00BF1F
:10084000A41600200044004080B58AB000AF786054
:1008500007F1180300221A605A609A60DA607B6818
:100860001B688C4A934240F087808B4A8A4B9B6975
:1008700043F480439361884B9B6903F480437B611D
:100880007B69854A844B9B6943F004039361824BE7
:100890009B6903F004033B613B694FF40073BB6148
:1008A0000223FB6103237B6207F1180319467B488F
:1008B00000F0AAFD4FF48063BB610023FB610023BD
:1008C0003B6207F118031946744800F09DFD744B14
:1008D000744A1A60724B00225A60714B00229A606F
:1008E0006F4B8022DA606E4B00221A616C4B002243
:1008F0005A616B4B00229A61694B0022DA616848A9
:1009000000F01EFA0346002B01D0FFF73BFE7B6888
:10091000634A9A63624A7B685362634B634A1A6014
:10092000614B10225A60604B00229A605E4B80221D
:10093000DA605D4B00221A615B4B00225A615A4B10
:1009400000229A61584B0022DA61574800F0F8F90A
:100950000346002B01D0FFF715FE7B68524A5A630D
:10096000514A7B68536200220521252000F0A4F93A
:10097000252000F0CDF989E07B681B684C4A934242
:1009800040F08480444A444BDB6943F40033D36134
:10099000414BDB6903F40033FB60FB683E4A3E4B8E
:1009A0009B6943F0040393613B4B9B6903F0040391
:1009B000BB60BB680423BB610223FB6103237B6232
:1009C00007F118031946354800F01EFD0823BB61E6
:1009D0000023FB6100233B6207F1180319462F48EF
:1009E00000F012FD334B344A1A60324B00225A6039
:1009F000304B00229A602F4B8022DA602D4B002270
:100A00001A612C4B00225A612A4B00229A61294B11
:100A10000022DA61274800F093F90346002B01D049
:100A2000FFF7B0FD7B68234A9A63224A7B685362D2
:100A3000224B234A1A60214B10225A601F4B00227E
:100A40009A601E4B8022DA601C4B00221A611B4BFD
:100A500000225A61194B00229A61184B0022DA6178
:100A6000164800F06DF90346002B01D0FFF78AFD10
:100A70007B68124A5A63114A7B685362002205213F
:100A8000262000F019F9262000F042F900BF28378F
:100A9000BD4680BD00380140001002400008014002
:100AA000D815002058000240941500204400024050
:100AB00000440040501500206C0002401C1600202D
:100AC0008000024080B500AF084A084B1B6843F025
:100AD00010031360032000F0CFF80F20FFF798FDFC
:100AE000FFF75EFD0023184680BD00BF00200240D6
:100AF00080B400AF054B1B781A46054B1B681344A6
:100B0000034A136000BFBD4680BC70470800002048
:100B1000E816002080B400AF024B1B681846BD46A3
:100B200080BC7047E816002080B485B000AF7860C4
:100B30007B6803F00703FB600C4BDB68BB60BA68A3
:100B40004FF6FF031340BB60FB681A02BB681343F8
:100B500043F0BF6343F40033BB60044ABB68D36017
:100B600000BF1437BD4680BC704700BF00ED00E0F9
:100B700080B400AF044BDB681B0A03F00703184680
:100B8000BD4680BC704700BF00ED00E080B483B07C
:100B900000AF0346FB7197F90730002B0BDB0849C8
:100BA00097F907305B09FA7902F01F02012000FA79
:100BB00002F241F8232000BF0C37BD4680BC7047CD
:100BC00000E100E080B483B000AF03463960FB7100
:100BD00097F90730002B0ADB0D4997F907303A687F
:100BE000D2B21201D2B20B4483F800230AE00949C1
:100BF000FB7903F00F03043B3A68D2B21201D2B280
:100C00000B441A7600BF0C37BD4680BC704700BF4E
:100C100000E100E000ED00E080B489B000AFF860D2
:100C2000B9607A60FB6803F00703FB61FB69C3F1FD
:100C30000703042B28BF0423BB61FB690433062B85
:100C400002D9FB69033B00E000237B610122BB6901
:100C500002FA03F35A1EBB681A407B699A400121CD
:100C60007B6901FA03F3591E7B680B401343184656
:100C70002437BD4680BC704780B582B000AF786035
:100C80007B68072B0FD07B68062B0CD07B68052B6D
:100C900009D07B68042B06D07B68032B03D09221FC
:100CA0000448FFF773FC7868FFF73EFF00BF083782
:100CB000BD4680BD90AF000880B586B000AF03464A
:100CC000B9607A60FB7300237B617B680F2B03D9CB
:100CD000AA210E48FFF75AFCBB680F2B03D9AB21A2
:100CE0000A48FFF753FCFFF743FF78617A68B96859
:100CF0007869FFF791FF024697F90F3011461846C1
:100D0000FFF760FF00BF1837BD4680BD90AF0008F9
:100D100080B582B000AF0346FB7197F90730002B16
:100D200003DABE210548FFF731FC97F90730184672
:100D3000FFF72CFF00BF0837BD4680BD90AF00080D
:100D400080B584B000AF78600023FB607B68002B27
:100D500001D10123DAE07B681B686E4A934221D0FF
:100D60007B681B686C4A93421CD07B681B686B4A8B
:100D7000934217D07B681B68694A934212D07B6804
:100D80001B68684A93420DD07B681B68664A934291
:100D900008D07B681B68654A934203D09A21644857
:100DA000FFF7F4FB7B685B68002B0CD07B685B680B
:100DB000102B08D07B685B68B3F5804F03D09B2174
:100DC0005B48FFF7E3FB7B689B68402B07D07B68A1
:100DD0009B68002B03D09C215548FFF7D7FB7B680D
:100DE000DB68802B07D07B68DB68002B03D09D215C
:100DF0004F48FFF7CBFB7B681B69002B0DD07B684E
:100E00001B69B3F5807F08D07B681B69B3F5007F51
:100E100003D09E214648FFF7B9FB7B685B69002B36
:100E20000DD07B685B69B3F5806F08D07B685B6928
:100E3000B3F5006F03D09F213D48FFF7A7FB7B6808
:100E40009B69002B07D07B689B69202B03D0A021D6
:100E50003748FFF79BFB7B68DB69002B12D07B6870
:100E6000DB69B3F5805F0DD07B68DB69B3F5005FAC
:100E700008D07B68DB69B3F5405F03D0A1212C4823
:100E8000FFF784FB7B681B681A462A4B13442A4AE7
:100E9000A2FB03231B099A007B681A647B68274A1C
:100EA000DA637B68022283F821207B681B681B6859
:100EB000FB60FB6823F47F5323F03003FB607B6807
:100EC0005A687B689B681A437B68DB681A437B68B7
:100ED0001B691A437B685B691A437B689B691A43E9
:100EE0007B68DB691343FA681343FB607B681B680C
:100EF000FA681A607B6800229A637B68012283F893
:100F000021207B68002283F8202000231846103718
:100F1000BD4680BD080002401C0002403000024077
:100F200044000240580002406C0002408000024031
:100F3000CCAF0008F8FFFDBFCDCCCCCC0000024008
:100F400080B586B000AFF860B9607A603B6000237E
:100F5000FB753B68002B03D03B68B3F5803F04D39F
:100F600040F26F112C48FFF711FBFB6893F820301B
:100F7000012B01D102234AE0FB68012283F82020E3
:100F8000FB6893F82130012B3AD1FB68022283F8E9
:100F90002120FB6800229A63FB681B68FA681268CC
:100FA000126822F001021A603B687A68B968F86832
:100FB00000F0FCF9FB68DB6A002B08D0FB681B68BB
:100FC000FA681268126842F00E021A600FE0FB68BD
:100FD0001B68FA681268126822F004021A60FB6843
:100FE0001B68FA681268126842F00A021A60FB680D
:100FF0001B68FA681268126842F001021A6005E084
:10100000FB68002283F820200223FB75FB7D184635
:101010001837BD4680BD00BFCCAF000880B485B096
:1010200000AF78600023FB737B6893F82130022BBC
:1010300008D07B6804229A637B68002283F8202012
:10104000012320E07B681B687A681268126822F02E
:101050000E021A607B681B687A681268126822F0B8
:1010600001021A607B68DB6B7A68126C012101FA5D
:1010700002F25A607B68012283F821207B680022FB
:1010800083F82020FB7B18461437BD4680BC704790
:1010900080B584B000AF78600023FB737B6893F861
:1010A0002130022B05D07B6804229A630123FB7355
:1010B00057E07B681B687A681268126822F00E029B
:1010C0001A607B681B687A681268126822F0010255
:1010D0001A60264A7B681B681946254B99422ED018
:1010E0007B681B681946234B994226D07B681B6896
:1010F0001946214B99421DD07B681B6819461F4B2E
:10110000994214D07B681B6819461D4B99420BD03D
:101110007B681B6819461B4B994202D14FF4801320
:101120000EE04FF080730BE04FF4803308E04FF493
:10113000805305E04FF4807302E0102300E00123A8
:1011400053607B68012283F821207B68002283F8AA
:1011500020207B685B6B002B03D07B685B6B78681F
:101160009847FB7B18461037BD4680BD0000024003
:10117000080002401C0002403000024044000240CF
:10118000580002406C00024080B584B000AF786027
:101190007B68DB6B1B68FB607B681B681B68BB6044
:1011A0007B681B6C04229A40FB681340002B55D0CF
:1011B000BB6803F00403002B50D07B681B681B68DE
:1011C00003F02003002B07D17B681B687A68126844
:1011D000126822F004021A606D4A7B681B68194687
:1011E0006C4B99422ED07B681B6819466A4B99421A
:1011F00026D07B681B681946684B99421DD07B68D6
:101200001B681946664B994214D07B681B681946C7
:10121000644B99420BD07B681B681946624B99421C
:1012200002D14FF480030EE04FF080630BE04FF4E7
:10123000802308E04FF4804305E04FF4806302E030
:10124000402300E0042353607B68DB6A002B00F03E
:101250009A807B68DB6A7868984794E07B681B6CAF
:1012600002229A40FB681340002B5CD0BB6803F05D
:101270000203002B57D07B681B681B6803F0200318
:10128000002B0BD17B681B687A681268126822F009
:101290000A021A607B68012283F821203C4A7B689D
:1012A0001B6819463B4B99422ED07B681B68194638
:1012B000394B994226D07B681B681946374B9942B7
:1012C0001DD07B681B681946354B994214D07B684A
:1012D0001B681946334B99420BD07B681B68194633
:1012E000314B994202D14FF400130EE04FF00073DE
:1012F0000BE04FF4003308E04FF4005305E04FF4E7
:10130000007302E0202300E0022353607B68002288
:1013100083F820207B689B6A002B34D07B689B6A13
:10132000786898472FE07B681B6C08229A40FB681E
:101330001340002B28D0BB6803F00803002B23D0F8
:101340007B681B687A681268126822F00E021A60C5
:101350007B68DB6B7A68126C012101FA02F25A6039
:101360007B6801229A637B68012283F821207B68D5
:10137000002283F820207B681B6B002B04D07B6845
:101380001B6B7868984700BF00BF1037BD4680BD13
:1013900000000240080002401C00024030000240F1
:1013A00044000240580002406C00024080B485B006
:1013B00000AFF860B9607A603B60FB68DB6BFA688D
:1013C000126C012101FA02F25A60FB681B683A684C
:1013D0005A60FB685B68102B08D1FB681B687A6851
:1013E0009A60FB681B68BA68DA6007E0FB681B68F4
:1013F000BA689A60FB681B687A68DA6000BF1437C5
:10140000BD4680BC7047000080B58AB000AF7860F0
:10141000396000237B6200233B627B689C4A9342D5
:1014200013D07B689B4A93420FD07B689A4A9342C1
:101430000BD07B68994A934207D07B68984A9342C5
:1014400003D0BD219748FFF7A1F83B681B689BB20A
:10145000002B05D03B681B681B0C1B04002B03D022
:10146000BE219048FFF792F83B685B68002B00F0C4
:10147000EB813B685B68012B00F0E6813B685B68B1
:10148000112B00F0E1813B685B68022B00F0DC81EE
:101490003B685B68122B00F0D7813B685B68824A2F
:1014A000934200F0D1813B685B68804A934200F030
:1014B000CB813B685B687E4A934200F0C5813B6804
:1014C0005B687C4A934200F0BF813B685B687A4A64
:1014D000934200F0B9813B685B68784A934200F020
:1014E000B3813B685B68032B00F0AE81BF216D4880
:1014F000FFF74CF8A8E101227B6A02FA03F3FB61D3
:101500003B681A68FB691340BB61BA69FB699A4280
:1015100040F097817B685E4A934213D07B685D4AB6
:1015200093420FD07B685C4A93420BD07B685B4A46
:10153000934207D07B685A4A934203D0CD21594841
:10154000FFF724F83B685B68122B65D0122B0ED88E
:10155000022B4CD0022B04D8002B72D0012B1DD0B3
:10156000B1E0032B00F0AC80112B2BD0ABE04F4A45
:10157000934266D04D4A934206D84B4A934260D07C
:101580004C4A93425DD09EE0494A934259D04B4A1F
:10159000934256D0484A934253D094E03B68DB686C
:1015A000022B0BD03B68DB68012B07D03B68DB6864
:1015B000032B03D0D5213B48FEF7E8FF3B68DB68EF
:1015C0003B6280E03B68DB68022B0BD03B68DB684A
:1015D000012B07D03B68DB68032B03D0DC213148AB
:1015E000FEF7D4FF3B68DB6804333B626BE03B688B
:1015F000DB68022B0BD03B68DB68012B07D03B6814
:10160000DB68032B03D0E3212648FEF7BFFF3B68CE
:10161000DB6808333B6256E03B68DB68022B0BD08B
:101620003B68DB68012B07D03B68DB68032B03D0EA
:10163000EA211C48FEF7AAFF3B68DB680C333B62DB
:1016400041E03B689B68002B0BD03B689B68012BFB
:1016500007D03B689B68022B03D0F7211148FEF7A7
:1016600095FF3B689B68002B02D104233B622AE074
:101670003B689B68012B05D108233B627B68FA69B4
:101680001A6120E008233B627B68FA695A611AE01C
:1016900000080140000C014000100140001401400E
:1016A0000018014004B000080000111000002110D3
:1016B0000000311000001210000022100000321053
:1016C00000233B6200BFBB69FF2B01D87B6801E0B0
:1016D0007B6804337B61BB69FF2B02D87B6A9B006C
:1016E00002E07B6A083B9B003B617B691A680F2123
:1016F0003B6901FA03F3DB431A40396A3B6901FA9B
:1017000003F31A437B691A603B685B6803F08053FC
:10171000002B00F09680524A514B9B6943F0010325
:1017200093614F4B9B6903F00103BB60BB684D4A5B
:101730007B6A9B08023352F82330FB607B6A03F01C
:1017400003039B000F2202FA03F3DB43FA68134002
:10175000FB607B68444A934213D07B68434A9342C0
:101760000DD07B68424A934207D07B68414A93423E
:1017700001D1032306E0042304E0022302E0012355
:1017800000E000237A6A02F0030292009340FA68B4
:101790001343FB6033497B6A9B080233FA6841F8C4
:1017A00023203B685B6803F48033002B06D032496A
:1017B000314B1A68BB6913430B6006E02E492E4B70
:1017C0001A68BB69DB4313400B603B685B6803F43A
:1017D0000033002B06D02849274B5A68BB691343B6
:1017E0004B6006E02449244B5A68BB69DB43134035
:1017F0004B603B685B6803F48013002B06D01E49E6
:101800001D4B9A68BB6913438B6006E01A491A4B5B
:101810009A68BB69DB4313408B603B685B6803F4E9
:101820000013002B06D01449134BDA68BB6913432D
:10183000CB6006E01049104BDA68BB69DB4313400C
:10184000CB607B6A01337B623B681A687B6A22FA51
:1018500003F3002B7FF44FAE00BF2837BD4680BD99
:10186000001002400000014000080140000C01404F
:1018700000100140001401400004014080B582B016
:1018800000AF78600B467B8013467B707B88002B13
:1018900004D07B881B0C1B04002B04D04FF4EA718E
:1018A0000E48FEF773FE7B78002B07D07B78012B68
:1018B00004D040F2D5110948FEF768FE7B78002B72
:1018C00003D07A887B681A6103E07B881A047B68FE
:1018D0001A6100BF0837BD4680BD00BF04B00008D4
:1018E000F0B58BB006AF78607B68002B01D1012387
:1018F00006E17B681B68844A934203D08E218348AB
:10190000FEF744FE7B6893F8A932DBB2002B06D1C8
:101910007B68002283F8A822786808F013FF7B68B0
:10192000032283F8A9227B681B68184603F066FD32
:101930007B681B683B607E686D4606F110040FCC27
:101940000FC523682B60331D0ECB386803F030FDC4
:101950000346002B05D07B68022283F8A9220123CD
:10196000CEE07B681B680021184603F061FD002370
:10197000FB734CE0FB7B79685A1C13469B001344B5
:10198000DB000B44013301221A70FB7B79685A1C7F
:1019900013469B001344DB000B44FA7B1A70FA7B5E
:1019A000FB7B98B2796813469B001344DB000B4421
:1019B000363302461A80FB7B79685A1C13469B001B
:1019C0001344DB000B44033300221A70FA7B79685E
:1019D00013469B001344DB000B44383300221A608B
:1019E000FA7B796813469B001344DB000B443C33BD
:1019F00000221A60FA7B796813469B001344DB00CF
:101A00000B44403300221A60FB7B0133FB73FA7BEB
:101A10007B685B689A42ADD30023FB7344E0FA7B9A
:101A2000796813469B001344DB000B4403F26913EF
:101A300000221A70FA7B796813469B001344DB007E
:101A40000B4403F5B473FA7B1A70FA7B796813467A
:101A50009B001344DB000B4403F26B1300221A704B
:101A6000FA7B796813469B001344DB000B4403F5B3
:101A7000BC7300221A60FA7B796813469B001344FA
:101A8000DB000B4403F5BE7300221A60FA7B796811
:101A900013469B001344DB000B4403F5C073002284
:101AA0001A60FB7B0133FB73FA7B7B685B689A42AD
:101AB000B5D37B681B683B607E686D4606F11004F9
:101AC0000FCC0FC523682B60331D0ECB386803F095
:101AD000BBFC0346002B05D07B68022283F8A922B9
:101AE00001230DE07B68002283F824207B6801221B
:101AF00083F8A9227B681B68184605F036FE002390
:101B000018461437BD46F0BD005C004040B00008E8
:101B100080B582B000AF78607B6893F8A832012B63
:101B200001D1022316E07B68012283F8A8227B689A
:101B30001B68184603F04CFC0121786809F075F821
:101B40007B681B68184605F006FE7B68002283F858
:101B5000A822002318460837BD4680BD80B588B04E
:101B600000AF78607B681B68184605F008FE0346E6
:101B700003F40043B3F5004F02D1786800F061FB35
:101B80007B681B68184605F0FAFD034603F4806382
:101B9000B3F5806F12D17B681B687A681268B2F85F
:101BA000442092B222F4806292B2A3F84420786872
:101BB00008F043FE0021786800F025F97B681B6877
:101BC000184605F0DCFD034603F48043B3F5804F6F
:101BD0000BD17B681B687A681268B2F8442092B215
:101BE00022F4804292B2A3F844207B681B68184616
:101BF00005F0C5FD034603F40053B3F5005F0BD1B8
:101C00007B681B687A681268B2F8442092B222F4AA
:101C1000005292B2A3F844207B681B68184605F076
:101C2000AEFD034603F48053B3F5805F26D17B6895
:101C30001B687A681268B2F8402092B222F004025F
:101C400092B2A3F840207B681B687A681268B2F8E9
:101C5000402092B222F0080292B2A3F840207868A5
:101C600008F024FE7B681B687A681268B2F844208A
:101C700092B222F4805292B2A3F844207B681B688F
:101C8000184605F07CFD034603F40063B3F5006FCE
:101C900040F084800023FB7711E0FB7F7A681268B4
:101CA0001146FA7F92000A44128892B25B0007F153
:101CB00020010B4423F8142CFB7F0133FB77FB7FBF
:101CC000072BEAD97B681B687A681268B2F8402053
:101CD00092B242F0010292B2A3F840207B681B68E6
:101CE0007A681268B2F8402092B222F0010292B2F1
:101CF000A3F8402000BF7B681B68B3F844309BB258
:101D000003F48063002BF6D07B681B687A68126846
:101D1000B2F8442092B222F4806292B2A3F8442036
:101D20000023FB7710E07B681B681A46FB7F9B0053
:101D30001A44FB7F5B0007F120010B4433F8143C8D
:101D40001380FB7F0133FB77FB7F072BEBD97B688D
:101D50001B687A681268B2F8402092B242F008021A
:101D600092B2A3F840207B681B687A681268B2F8C8
:101D7000442092B222F4006292B2A3F844207B681D
:101D80001B687A681268B2F8402092B242F00402EE
:101D900092B2A3F84020786808F06EFD7B681B685B
:101DA000184605F0ECFC034603F40073B3F5007F1E
:101DB0000ED17B681B687A681268B2F8442092B230
:101DC00022F4007292B2A3F84420786808F027FD4C
:101DD0007B681B68184605F0D2FC034603F4807349
:101DE000B3F5807F0BD17B681B687A681268B2F804
:101DF000442092B222F4807292B2A3F8442000BF31
:101E00002037BD4680BD80B582B000AF78600B46FC
:101E1000FB707B6893F8A832012B01D1022313E0F9
:101E20007B68012283F8A8227B68FA7883F8242053
:101E30007B681B68FA781146184605F079FC7B68C8
:101E4000002283F8A822002318460837BD4680BD2B
:101E500080B584B000AF7860084611461A46034644
:101E6000FB700B463B801346BB700023FB7297F957
:101E70000330002B0EDAFB7803F007035A1C1346DD
:101E80009B001344DB007A681344FB60FB6801226B
:101E90005A700EE0FB7803F0070213469B001344D0
:101EA000DB0003F5B4737A681344FB60FB6800221F
:101EB0005A70FB7803F00703DAB2FB681A703A88AD
:101EC000FB681A61FB68BA78DA70FB685B78002BF4
:101ED00004D0FB681B789AB2FB68DA81BB78022BCE
:101EE00002D1FB6800221A717B6893F8A832012B9B
:101EF00001D102230EE07B68012283F8A8227B68CF
:101F00001B68F968184603F0BFFA7B68002283F863
:101F1000A822FB7A18461037BD4680BD80B584B034
:101F200000AF78600B46FB7097F90330002B0EDA98
:101F3000FB7803F007035A1C13469B001344DB0095
:101F40007A681344FB60FB6801225A700EE0FB784C
:101F500003F0070213469B001344DB0003F5B47340
:101F60007A681344FB60FB6800225A70FB7803F028
:101F70000703DAB2FB681A707B6893F8A832012B6A
:101F800001D102230EE07B68012283F8A8227B683E
:101F90001B68F968184603F0DBFD7B68002283F8B4
:101FA000A822002318461037BD4680BD80B586B0F4
:101FB00000AFF8607A603B600B46FB72FB7A03F07F
:101FC000070213469B001344DB0003F5B473FA6861
:101FD00013447B617B697A685A617B693A689A61CC
:101FE0007B690022DA617B6900225A70FB7A03F078
:101FF0000703DAB27B691A70FB7A03F00703002B40
:1020000006D1FB681B687969184603F08DFF05E06F
:10201000FB681B687969184603F086FF00231846A1
:102020001837BD4680BD80B483B000AF78600B46E2
:10203000FB70FB7803F00702796813469B0013449A
:10204000DB000B4403F5C2731B6818460C37BD4612
:1020500080BC704780B586B000AFF8607A603B60A6
:102060000B46FB72FB7A03F007035A1C13469B00D6
:102070001344DB00FA6813447B617B697A685A6118
:102080007B693A689A617B69012283F824207B6925
:102090003A681A627B690022DA617B6901225A7010
:1020A000FB7A03F00703DAB27B691A70FB7A03F05C
:1020B0000703002B06D1FB681B687969184603F0FB
:1020C00033FF05E0FB681B687969184603F02CFFB5
:1020D000002318461837BD4680BD80B584B000AFD8
:1020E00078600B46FB70FB7803F007027B685B6847
:1020F0009A4201D901234CE097F90330002B0EDA04
:10210000FB7803F007035A1C13469B001344DB00C3
:102110007A681344FB60FB6801225A700CE0FA787D
:1021200013469B001344DB0003F5B4737A68134431
:10213000FB60FB6800225A70FB6801229A70FB78F2
:1021400003F00703DAB2FB681A707B6893F8A832D1
:10215000012B01D102231CE07B68012283F8A82215
:102160007B681B68F968184605F0E5F9FB7803F011
:102170000703002B08D17B681A687B6803F52C7372
:102180001946104605F00AFB7B68002283F8A82256
:10219000002318461037BD4680BD80B584B000AF1F
:1021A00078600B46FB70FB7803F00F027B685B687E
:1021B0009A4201D9012340E097F90330002B0EDA4F
:1021C000FB7803F007035A1C13469B001344DB0003
:1021D0007A681344FB60FB6801225A700EE0FB78BA
:1021E00003F0070213469B001344DB0003F5B473AE
:1021F0007A681344FB60FB6800225A70FB68002277
:102200009A70FB7803F00703DAB2FB681A707B68F8
:1022100093F8A832012B01D102230EE07B68012242
:1022200083F8A8227B681B68F968184605F0D3F983
:102230007B68002283F8A822002318461037BD4689
:1022400080BD80B58EB000AF7860ECE27B681B6823
:10225000B3F84430FB85FB8DDBB203F00F0387F846
:102260002D3097F82D30002B40F06181FB8D03F06D
:102270001003002B52D17B681B681B889BB223F490
:10228000E14323F070037B857B681A687B8D6FEADE
:1022900043436FEA53439BB213807B6828337B62CE
:1022A0007B681B68B3F850309BB21A467B6A1B7878
:1022B000DB00134402335B007A681268134403F5B1
:1022C00080631B88C3F309027B6ADA617B6A5A69FF
:1022D0007B6ADB691A447B6A5A610021786808F0DE
:1022E00084FA7B6893F82430DBB2002B00F09B82E9
:1022F0007B6A9B69002B40F096827B681B687A683A
:1023000092F82420D2B262F07F02D2B292B2A3F845
:102310004C207B68002283F8242084E27B6803F54C
:10232000B4737B627B681B681B887B847B8C03F4A3
:102330000063002B34D07B681B68B3F850309BB22D
:102340001A467B6A1B78DB00134406335B007A680D
:102350001268134403F580631B88C3F309027B6A88
:10236000DA617B6818687B6803F52C717B6ADA8810
:102370007B6ADB699BB205F060FA7B681B681B888F
:102380009AB240F68F7313403B847B681B683A8C8B
:1023900042F0800292B21A80786808F0F9F942E2BD
:1023A000B7F92230002B80F23E827B681B681B88C5
:1023B0009AB240F68F731340FB837B681B68FA8BDD
:1023C00042F0800292B21A807B681B68B3F85030EA
:1023D0009BB21A467B6A1B78DB00134406335B0012
:1023E0007A681268134403F580631B88C3F30902FB
:1023F0007B6ADA617B6ADB69002B19D07B6A5B69D7
:10240000002B15D07B6818687B6A59697B6ADA886B
:102410007B6ADB699BB205F010FA7B6A5A697B6ABA
:10242000DB691A447B6A5A610021786808F0C2F9B6
:102430007B681B681B889BB203F40063002B40F091
:10244000F2817B681B68BB617B681B68B3F8503006
:102450009BB21A46BB691344BB61BB6903F20C43D0
:102460007B617B6A1B69002B12D17B691B889BB245
:1024700023F4F8439AB27B691A807B691B889BB26C
:102480006FEA43436FEA53439AB27B691A802FE0A5
:102490007B6A1B693E2B13D87B6A1B695B083B6315
:1024A0007B6A1B6903F00103002B02D03B6B0133F5
:1024B0003B633B6B9BB29B029AB27B691A8017E02D
:1024C0007B6A1B695B093B637B6A1B6903F01F0323
:1024D000002B02D13B6B013B3B633B6B9BB29B02EE
:1024E0009BB26FEA43436FEA53439AB27B691A8007
:1024F0007B681B681B889BB223F4804323F0700326
:102500007B827B8A83F480537B827B8A83F40053B3
:102510007B827B681A687B8A43F07F4343F47F03A6
:1025200043F4004343F080039BB213807BE17B685C
:102530001B681A4697F82D309B0013441B887B8438
:10254000B7F92230002B80F2EA807B681B681A46BC
:1025500097F82D309B0013441B889AB240F68F7376
:1025600013403B827B681B681A4697F82D309B000E
:1025700013443A8A42F0800292B21A8097F82D20D2
:1025800013469B001344DB0003F5B4737A681344CD
:102590007B627B6A1B7B002B22D17B681B68B3F8B4
:1025A00050309BB21A467B6A1B78DB00134406331B
:1025B0005B007A681268134403F580631B88C3F3D9
:1025C0000903FB86FB8E002B00F087807B68186870
:1025D0007B6A59697B6ADA88FB8E05F02EF97CE00C
:1025E0007B6ADB78022B08D17B8C1A46796A786883
:1025F00000F027F90346FB866FE07B681B681A46EC
:102600007B6A1B789B0013441B889BB223F4E04336
:1026100023F07003FB817B681B681A467B6A1B787A
:102620009B001A44FB8943F07F4343F47F0343F448
:10263000004343F0C0039BB213807B681B681A46BB
:102640007B6A1B789B0013441B889BB203F4804376
:10265000002B21D07B681B68B3F850309BB21A4620
:102660007B6A1B78DB00134402335B007A681268D4
:10267000134403F580631B88C3F30903FB86FB8EB9
:10268000002B2AD07B6818687B6A59697B6A1A8993
:10269000FB8E05F0D2F820E07B681B68B3F8503061
:1026A0009BB21A467B6A1B78DB00134406335B003F
:1026B0007A681268134403F580631B88C3F3090327
:1026C000FB86FB8E002B08D07B6818687B6A5969F3
:1026D0007B6A5A89FB8E05F0B0F87B6ADA69FB8E5B
:1026E0001A447B6ADA617B6A5A69FB8E1A447B6AF8
:1026F0005A617B6A9B69002B04D0FA8E7B6A1B6946
:102700009A4206D27B6A1B781946786808F052F81C
:1027100005E07B681B68796A184603F005FC7B8C32
:1027200003F08003002B7ED097F82D305A1C1346FF
:102730009B001344DB007A6813447B627B681B6850
:102740001A4697F82D309B0013441B889BB223F444
:10275000E14323F07003BB817B681B681A4697F83E
:102760002D309B001A44BB896FEA43436FEA534301
:102770009BB213807B6ADB78032B0CD07B6ADB78FF
:10278000002B08D07B6ADB78022B46D17B8C03F4CC
:102790008073002B41D17B681B68B3F850309BB22B
:1027A0001A467B6A1B78DB00134402335B007A68AD
:1027B0001268134403F580631B88C3F309037B810C
:1027C0007B6A9A697B899A4206D97B6A9A697B8976
:1027D000D21A7B6A9A6102E07B6A00229A617B6A64
:1027E0009B69002B06D17B6A1B781946786807F035
:1027F000FCFF18E07B6A5A697B891A447B6A5A613C
:102800007B6ADA697B891A447B6ADA617B681B68B8
:10281000796A184603F088FB05E07B8C1A46796AD2
:10282000786800F01BF97B681B68B3F844309BB2F2
:102830001BB2002BFFF60AAD002318463837BD4601
:1028400080BD80B588B000AFF860B9601346FB80EA
:10285000FB8803F48043002B7ED0FB681B68B3F831
:1028600050309BB21A46BB681B78DB00134402331E
:102870005B00FA681268134403F580631B88C3F396
:102880000903FB83BB689A69FB8B9A4206D3BB683A
:102890009A69FB8BD21ABB689A6102E0BB6800227E
:1028A0009A61BB689B69002B23D1FB681B681A46A1
:1028B000BB681B789B0013441B889BB223F48043A6
:1028C00023F07003BB83BB8B83F40053BB83FB6893
:1028D0001B681A46BB681B789B001A44BB8B43F0ED
:1028E0007F4343F47F0343F4004343F080039BB2F0
:1028F0001380FB8803F04003002B1FD0FB681B688C
:102900001A46BB681B789B0013441B889BB223F4B8
:10291000E04323F070037B83FB681B681A46BB68A7
:102920001B789B001A447B8B43F07F4343F47F0367
:1029300043F4004343F0C0039BB21380FB8B002B96
:1029400000F08780FB681868BB685969BB681A8902
:10295000FB8B04F072FF7CE0FB681B68B3F850301F
:102960009BB21A46BB681B78DB00134406335B003E
:10297000FA681268134403F580631B88C3F30903E4
:10298000FB83BB689A69FB8B9A4206D3BB689A6942
:10299000FB8BD21ABB689A6102E0BB6800229A6185
:1029A000BB689B69002B23D1FB681B681A46BB6878
:1029B0001B789B0013441B889BB223F4804323F0B5
:1029C00070033B833B8B83F400533B83FB681B68A2
:1029D0001A46BB681B789B001A443B8B43F07F432D
:1029E00043F47F0343F4004343F080039BB213801E
:1029F000FB8803F04003002B1FD1FB681B681A46BD
:102A0000BB681B789B0013441B889BB223F4E043F4
:102A100023F07003FB82FB681B681A46BB681B78B7
:102A20009B001A44FB8A43F07F4343F47F0343F443
:102A3000004343F0C0039BB21380FB8B002B08D0F4
:102A4000FB681868BB685969BB685A89FB8B04F03E
:102A5000F4FEFB8B18462037BD4680BD80B5A4B080
:102A600000AFF860B9601346FB80FB8803F04003B9
:102A7000002B00F0DD81FB681B68B3F850309BB27F
:102A80001A46BB681B78DB00134402335B00FA680C
:102A90001268134403F580631B88C3F30903A7F886
:102AA0008230BB689A69B7F882309A4207D9BB680E
:102AB0009A69B7F88230D21ABB689A6102E0BB68A3
:102AC00000229A61BB689B69002B40F0BB80BB6809
:102AD0005B78002B26D1FB681B68FB67FB681B68D3
:102AE000B3F850309BB21A46FB6F1344FB67BB68C8
:102AF0001B781A01FB6F134403F20443BB67BB6FDF
:102B00001B889BB223F4F8439AB2BB6F1A80BB6F49
:102B10001B889BB26FEA43436FEA53439AB2BB6F81
:102B20001A801AE0BB685B78012B16D1FB681B6822
:102B30007B67FB681B68B3F850309BB21A467B6F0B
:102B400013447B67BB681B781A017B6F134403F245
:102B500004433B673B6F00221A80FB681B68FB66DF
:102B6000BB685B78002B26D1FB681B68BB66FB68E3
:102B70001B68B3F850309BB21A46BB6E1344BB6659
:102B8000BB681B781A01BB6E134403F20C437B66CF
:102B90007B6E1B889BB223F4F8439AB27B6E1A803B
:102BA0007B6E1B889BB26FEA43436FEA53439AB232
:102BB0007B6E1A8017E0BB685B78012B13D1FB6832
:102BC0001B68B3F850309BB21A46FB6E1344FB6689
:102BD000BB681B781A01FB6E134403F20C433B667F
:102BE0003B6E00221A80BB681B781946F86807F014
:102BF000FCFDFB8803F48043002B00F0F182FB68AE
:102C00001B681A46BB681B789B0013441B889BB249
:102C100023F4E04323F07003A7F85E30FB681B68E1
:102C20001A46BB681B789B001A44B7F85E3043F025
:102C30007F4343F47F0343F4404343F080039BB25C
:102C40001380CDE2FB8803F48043002B21D0FB6886
:102C50001B681A46BB681B789B0013441B889BB2F9
:102C600023F4E04323F07003A7F85C30FB681B6893
:102C70001A46BB681B789B001A44B7F85C3043F0D7
:102C80007F4343F47F0343F4404343F080039BB20C
:102C90001380BB6893F82430012B40F0A182BB68FD
:102CA0005A69B7F882301A44BB685A61BB68DA695E
:102CB000B7F882301A44BB68DA61BB681A6ABB682D
:102CC0001B699A420BD3BB681B69C7F88C30BB6881
:102CD0001A6AD7F88C30D21ABB681A6217E0BB6840
:102CE0001B6A002B08D1B7F88230C7F88C30BB685C
:102CF000002283F824200AE0BB68002283F8242005
:102D0000BB681B6AC7F88C30BB6800221A62BB68BC
:102D10005B78002B63D1FB681B68BB65FB681B6895
:102D2000B3F850309BB21A46BB6D1344BB65BB6809
:102D30001B781A01BB6D134403F204437B65D7F87B
:102D40008C30002B12D17B6D1B889BB223F4F8438F
:102D50009AB27B6D1A807B6D1B889BB26FEA4343EE
:102D60006FEA53439AB27B6D1A8055E0D7F88C30E6
:102D70003E2B17D8D7F88C305B08C7F88830D7F8C7
:102D80008C3003F00103002B04D0D7F888300133D6
:102D9000C7F88830D7F888309BB29B029AB27B6D17
:102DA0001A8039E0D7F88C305B09C7F88830D7F83B
:102DB0008C3003F01F03002B04D1D7F88830013B7F
:102DC000C7F88830D7F888309BB29B029BB26FEA75
:102DD00043436FEA53439AB27B6D1A801CE0BB6891
:102DE0005B78012B18D1FB681B683B65FB681B688F
:102DF000B3F850309BB21A463B6D13443B65BB6839
:102E00001B781A013B6D134403F20443FB64D7F8AB
:102E10008C309AB2FB6C1A80FB681868BB685969E1
:102E2000BB681A89D7F88C309BB204F0C2FCD7E19A
:102E3000FB681B68B3F850309BB21A46BB681B781E
:102E4000DB00134406335B00FA681268134403F591
:102E500080631B88C3F30903A7F88230BB689A69B3
:102E6000B7F882309A4207D3BB689A69B7F88230C4
:102E7000D21ABB689A6102E0BB6800229A61BB6803
:102E80009B69002B40F0B980BB685B78002B26D192
:102E9000FB681B68BB64FB681B68B3F850309BB2CF
:102EA0001A46BB6C1344BB64BB681B781A01BB6C2D
:102EB000134403F204437B647B6C1B889BB223F4B2
:102EC000F8439AB27B6C1A807B6C1B889BB26FEACA
:102ED00043436FEA53439AB27B6C1A801AE0BB6893
:102EE0005B78012B16D1FB681B683B64FB681B6891
:102EF000B3F850309BB21A463B6C13443B64BB683A
:102F00001B781A013B6C134403F20443FB63FB6B15
:102F100000221A80FB681B68BB63BB685B78002BD0
:102F200026D1FB681B687B63FB681B68B3F85030D5
:102F30009BB21A467B6B13447B63BB681B781A01F8
:102F40007B6B134403F20C433B633B6B1B889BB2CC
:102F500023F4F8439AB23B6B1A803B6B1B889BB2FD
:102F60006FEA43436FEA53439AB23B6B1A8017E010
:102F7000BB685B78012B13D1FB681B68B3F850303A
:102F80009BB21A46BB6B1344BB63BB681B781A0128
:102F9000BB6B134403F20C43FB62FB6A00221A80F2
:102FA000BB681B781946F86807F01FFCFB8803F420
:102FB0008043002B40F01481FB681B681A46BB68F5
:102FC0001B789B0013441B889BB223F4E04323F03F
:102FD00070037B85FB681B681A46BB681B789B00E7
:102FE0001A447B8D43F07F4343F47F0343F4404313
:102FF00043F080039BB21380F2E0FB8803F480432C
:10300000002B1FD1FB681B681A46BB681B789B000E
:1030100013441B889BB223F4E04323F070033B85E9
:10302000FB681B681A46BB681B789B001A443B8DE3
:1030300043F07F4343F47F0343F4404343F0800372
:103040009BB21380BB6893F82430012B40F0C880FA
:10305000BB685A69B7F882301A44BB685A61BB68CA
:10306000DA69B7F882301A44BB68DA61BB681A6A59
:10307000BB681B699A420BD3BB681B69C7F88C30CD
:10308000BB681A6AD7F88C30D21ABB681A6217E08C
:10309000BB681B6A002B08D1B7F88230C7F88C30A8
:1030A000BB68002283F824200AE0BB681B6AC7F8CB
:1030B0008C30BB6800221A62BB68002283F824208F
:1030C000FB681B687B62BB685B78002B63D1FB6885
:1030D0001B683B62FB681B68B3F850309BB21A4612
:1030E0003B6A13443B62BB681B781A013B6A13447A
:1030F00003F20C43FB61D7F88C30002B12D1FB6933
:103100001B889BB223F4F8439AB2FB691A80FB69CF
:103110001B889BB26FEA43436FEA53439AB2FB6941
:103120001A8052E0D7F88C303E2B17D8D7F88C3065
:103130005B08C7F88430D7F88C3003F00103002B0C
:1031400004D0D7F884300133C7F88430D7F88430FE
:103150009BB29B029AB2FB691A8036E0D7F88C309A
:103160005B09C7F88430D7F88C3003F01F03002BBD
:1031700004D1D7F88430013BC7F88430D7F88430C5
:103180009BB29B029BB26FEA43436FEA53439AB2EE
:10319000FB691A8019E0BB685B78012B15D1FB68CD
:1031A0001B68B3F850309BB21A467B6A13447B62AB
:1031B000BB681B781A017B6A134403F20C43BB61A2
:1031C000D7F88C309AB2BB691A80FB681868BB6864
:1031D0005969BB685A89D7F88C309BB204F0E9FA78
:1031E000FB681B681A46BB681B789B0013441B884E
:1031F0009BB223F4E04323F04003FB82FB8A83F07D
:103200001003FB82FB8A83F02003FB82FB681B68B0
:103210001A46BB681B789B001A44FB8A43F07F4325
:1032200043F47F0343F4004343F080039BB21380D5
:10323000002318469037BD4680BD80B487B000AFEC
:10324000F8607B600B467B8113463B817B8903F0F2
:1032500080039BB2002B0BD07B8903F007035A1C21
:1032600013469B001344DB00FA6813447B6109E0BA
:103270007A8913469B001344DB0003F5B473FA68A4
:1032800013447B613B89002B07D17B6900221A73B1
:103290007B689AB27B69DA800BE07B6901221A7342
:1032A0007B689AB27B691A817B681B0C9AB27B6936
:1032B0005A81002318461C37BD4680BC7047000069
:1032C00080B586B000AF78607B68002B01D1012308
:1032D0005CE37B681B68002B1CD07B681B6803F0D9
:1032E0000103002B16D17B681B6803F00203002B3F
:1032F00010D17B681B6803F00803002B0AD17B68A0
:103300001B6803F00403002B04D140F26711A548A9
:10331000FDF73CF97B681B6803F00103002B00F00C
:103320009A807B685B68002B0ED07B685B68B3F586
:10333000803F09D07B685B68B3F5A02F04D040F2D2
:103340006D119848FDF722F9974B5B6803F00C0369
:10335000042B0CD0944B5B6803F00C03082B12D1A8
:10336000914B5B6803F48033B3F5803F0BD18E4BF8
:103370001B6803F40033002B6CD07B685B68002B68
:1033800068D1012302E37B685B68B3F5803F06D117
:10339000854A854B1B6843F4803313602EE07B68BD
:1033A0005B68002B0CD1804A7F4B1B6823F4803371
:1033B00013607D4A7C4B1B6823F4802313601DE05F
:1033C0007B685B68B3F5A02F0CD1774A764B1B68FE
:1033D00043F480231360744A734B1B6843F48033B7
:1033E00013600BE0704A704B1B6823F4803313604A
:1033F0006D4A6D4B1B6823F4802313607B685B6808
:10340000002B13D0FDF786FB386108E0FDF782FB47
:1034100002463B69D31A642B01D90323B6E2624BFF
:103420001B6803F40033002BF0D014E0FDF772FBAF
:10343000386108E0FDF76EFB02463B69D31A642B46
:1034400001D90323A2E2584B1B6803F40033002B7D
:10345000F0D100E000BF7B681B6803F00203002B83
:1034600079D07B681B69002B08D07B681B69012B16
:1034700004D040F2A1114B48FDF788F87B685B69E6
:103480001F2B04D94FF4D1714648FDF77FF8464B06
:103490005B6803F00C03002B0BD0434B5B6803F01D
:1034A0000C03082B1CD1404B5B6803F48033002BCA
:1034B00016D13D4B1B6803F00203002B05D07B683F
:1034C0001B69012B01D0012360E23749364B1B6891
:1034D00023F0F8027B685B69DB0013430B603AE082
:1034E0007B681B69002B20D0304B01221A60FDF74E
:1034F00011FB386108E0FDF70DFB02463B69D31A6A
:10350000022B01D9032341E2274B1B6803F002037E
:10351000002BF0D02449244B1B6823F0F8027B6871
:103520005B69DB0013430B6015E0204B00221A603F
:10353000FDF7F0FA386108E0FDF7ECFA02463B6966
:10354000D31A022B01D9032320E2174B1B6803F087
:103550000203002BF0D17B681B6803F00803002BEB
:1035600048D07B689B69002B08D07B689B69012B46
:1035700004D04FF4F1710B48FDF708F87B689B69A4
:10358000002B21D00A4B01221A60FDF7C3FA3861E3
:1035900010E0FDF7BFFA02463B69D31A022B09D9A6
:1035A0000323F3E178B0000800100240000042421B
:1035B00080044242674B5B6A03F00203002BE8D0B1
:1035C000012000F053FC15E0634B00221A60FDF768
:1035D000A1FA386108E0FDF79DFA02463B69D31A6B
:1035E000022B01D90323D1E15A4B5B6A03F002039A
:1035F000002BF0D17B681B6803F00403002B00F064
:10360000C0800023FB757B68DB68002B0CD07B68D7
:10361000DB68012B08D07B68DB68052B04D040F207
:1036200011214E48FCF7B2FF4A4BDB6903F080538F
:10363000002B0DD1474A474BDB6943F08053D361E0
:10364000444BDB6903F08053BB60BB680123FB750F
:10365000434B1B6803F48073002B18D1404A404B46
:103660001B6843F480731360FDF754FA386108E077
:10367000FDF750FA02463B69D31A642B01D90323A4
:1036800084E1374B1B6803F48073002BF0D07B6818
:10369000DB68012B06D12F4A2E4B1B6A43F0010336
:1036A00013622DE07B68DB68002B0CD1294A294B83
:1036B0001B6A23F001031362264A264B1B6A23F080
:1036C000040313621CE07B68DB68052B0CD1214AE4
:1036D000204B1B6A43F0040313621E4A1D4B1B6AF6
:1036E00043F0010313620BE01A4A1A4B1B6A23F0E2
:1036F00001031362174A174B1B6A23F0040313627A
:103700007B68DB68002B15D0FDF704FA38610AE00E
:10371000FDF700FA02463B69D31A41F28832934220
:1037200001D9032332E10B4B1B6A03F00203002B88
:10373000EED01DE0FDF7EEF9386113E0FDF7EAF990
:1037400002463B69D31A41F2883293420AD90323D5
:103750001CE100BF001002408004424278B0000823
:10376000007000408B4B1B6A03F00203002BE5D175
:10377000FB7D012B05D1874A864BDB6923F0805303
:10378000D3617B68DB69002B0CD07B68DB69012B84
:1037900008D07B68DB69022B04D040F2AF217E4861
:1037A000FCF7F4FE7B68DB69002B00F0EE80794BC0
:1037B0005B6803F00C03082B00F0CE807B68DB69AC
:1037C000022B40F0B2807B681B6A002B09D07B681B
:1037D0001B6AB3F5803F04D04FF42E716E48FCF79E
:1037E000D5FE7B685B6A002B4AD07B685B6AB3F5C9
:1037F000802F45D07B685B6AB3F5002F40D07B6893
:103800005B6AB3F5402F3BD07B685B6AB3F5801FE2
:1038100036D07B685B6AB3F5A01F31D07B685B6AEA
:10382000B3F5C01F2CD07B685B6AB3F5E01F27D0CF
:103830007B685B6AB3F5001F22D07B685B6AB3F5D7
:10384000101F1DD07B685B6AB3F5201F18D07B6802
:103850005B6AB3F5301F13D07B685B6AB3F5401F1A
:103860000ED07B685B6AB3F5501F09D07B685B6A3A
:10387000B3F5601F04D040F2B9214748FCF786FE3B
:10388000464B00221A60FDF745F9386108E0FDF764
:1038900041F902463B69D31A022B01D9032375E093
:1038A0003C4B1B6803F00073002BF0D17B681B6A54
:1038B000B3F5803F16D17B689B68002B09D07B68ED
:1038C0009B68B3F5003F04D040F2CF213248FCF7AB
:1038D0005DFE30492F4B5B6823F400327B689B68A8
:1038E00013434B602B482B4B5B6823F474127B68AB
:1038F000196A7B685B6A0B4313434360274B0122C1
:103900001A60FDF707F9386108E0FDF703F9024690
:103910003B69D31A022B01D9032337E01D4B1B68E7
:1039200003F00073002BF0D02FE01C4B00221A6034
:10393000FDF7F0F8386108E0FDF7ECF802463B6966
:10394000D31A022B01D9032320E0124B1B6803F08A
:103950000073002BF0D118E07B68DB69012B01D1EB
:10396000012313E00B4B5B68FB60FB6803F48032C0
:103970007B681B6A9A4206D1FB6803F470127B686D
:103980005B6A9A4201D0012300E0002318461837F1
:10399000BD4680BD0010024078B000086000424281
:1039A00080B584B000AF786039607B68002B01D1AE
:1039B000012376E17B681B6803F00103002B16D11D
:1039C0007B681B6803F00203002B10D17B681B6827
:1039D00003F00403002B0AD17B681B6803F0080383
:1039E000002B04D14FF44E717448FCF7CFFD3B68B7
:1039F000002B0AD03B68012B07D03B68022B04D078
:103A000040F239316D48FCF7C1FD6D4B1B6803F086
:103A100007023B689A4210D26949694B1B6823F040
:103A200007023B6813430B60654B1B6803F00702FA
:103A30003B689A4201D0012333E17B681B6803F0A5
:103A40000203002B49D07B681B6803F00403002BA2
:103A500005D05C4A5B4B5B6843F4E06353607B6872
:103A60001B6803F00803002B05D0564A554B5B68D2
:103A700043F4605353607B689B68002B24D07B68C1
:103A80009B68802B20D07B689B68902B1CD07B6828
:103A90009B68A02B18D07B689B68B02B14D07B68E8
:103AA0009B68C02B10D07B689B68D02B0CD07B68A8
:103AB0009B68E02B08D07B689B68F02B04D040F219
:103AC0005F313E48FCF762FD3E493E4B5B6823F0A8
:103AD000F0027B689B6813434B607B681B6803F0B4
:103AE0000103002B51D07B685B68002B0CD07B68F6
:103AF0005B68012B08D07B685B68022B04D040F226
:103B000066312E48FCF742FD7B685B68012B07D1CC
:103B10002C4B1B6803F40033002B15D10123C0E0AC
:103B20007B685B68022B07D1264B1B6803F0007390
:103B3000002B09D10123B4E0224B1B6803F00203E0
:103B4000002B01D10123ACE01E491E4B5B6823F022
:103B500003027B685B6813434B60FCF7DBFFF86094
:103B60000AE0FCF7D7FF0246FB68D31A41F288321D
:103B7000934201D9032394E0124B5B6803F00C02DB
:103B80007B685B689B009A42EBD10D4B1B6803F08E
:103B900007023B689A4217D90949094B1B6823F071
:103BA00007023B6813430B60054B1B6803F00702D9
:103BB0003B689A4208D0012373E000BF78B0000848
:103BC00000200240001002407B681B6803F00403E1
:103BD000002B25D07B68DB68002B18D07B68DB6866
:103BE000B3F5806F13D07B68DB68B3F5A06F0ED0A0
:103BF0007B68DB68B3F5C06F09D07B68DB68B3F521
:103C0000E06F04D04FF469712848FCF7BFFC2849E5
:103C1000274B5B6823F4E0627B68DB6813434B60EF
:103C20007B681B6803F00803002B26D07B681B69A8
:103C3000002B18D07B681B69B3F5806F13D07B68AD
:103C40001B69B3F5A06F0ED07B681B69B3F5C06F1D
:103C500009D07B681B69B3F5E06F04D040F2AB314B
:103C60001248FCF793FC1249114B5B6823F4605235
:103C70007B681B69DB0013434B6000F021F80146B1
:103C80000B4B5B681B0903F00F030A4AD35C21FA54
:103C900003F3094A1360094B1B681846FCF7B8FC8C
:103CA000002318461037BD4680BD00BF78B000081D
:103CB00000100240C8B100080000002004000020ED
:103CC00090B48AB000AF2A4B3C1D0FCB84E80F00A4
:103CD000284B1B883B800023FB610023BB61002332
:103CE0007B6200237B6100233B62234B5B68FB61AB
:103CF000FB6903F00C03042B02D0082B03D02DE04A
:103D00001E4B3B622DE0FB699B0C03F00F0307F198
:103D10002802134413F8243C7B61FB6903F48033CD
:103D2000002B13D0144B5B685B0C03F0010307F10D
:103D30002802134413F8283CBB617B690F4A02FB3D
:103D400003F2BB69B2FBF3F37B6204E07B690C4ACC
:103D500002FB03F37B627B6A3B6202E0074B3B6240
:103D600000BF3B6A18462837BD4690BC704700BF6D
:103D7000B0B00008C0B000080010024000127A0085
:103D800000093D0080B400AF024B1B681846BD46D9
:103D900080BC70470000002080B500AFFFF7F2FF45
:103DA0000146054B5B681B0A03F00703034AD35C1B
:103DB00021FA03F3184680BD00100240D8B1000874
:103DC00080B500AFFFF7DEFF0146054B5B68DB0AFD
:103DD00003F00703034AD35C21FA03F3184680BDBE
:103DE00000100240D8B1000880B582B000AF786002
:103DF00039607B68002B04D140F223511848FCF74E
:103E0000C5FB3B68002B04D140F224511448FCF759
:103E1000BDFB7B680F221A60124B5B6803F0030244
:103E20007B685A600F4B5B6803F0F0027B689A6016
:103E30000C4B5B6803F4E0627B68DA60094B5B68FB
:103E4000DB0803F4E0627B681A61074B1B6803F030
:103E500007023B681A6000BF0837BD4680BD00BF3F
:103E600078B00008001002400020024080B485B005
:103E700000AF78600A4B1B680A4AA2FB03235B0A67
:103E80007A6802FB03F3FB6000BFFB685A1EFA600E
:103E9000002BF9D100BF1437BD4680BC704700BF6E
:103EA00000000020D34D621080B586B000AF78606E
:103EB00000233B610023FB607B681B6803F0010368
:103EC000002B0FD17B681B6803F00203002B09D184
:103ED0007B681B6803F01003002B03D16C2173482F
:103EE000FCF754FB7B681B6803F00103002B00F018
:103EF00095800023FB757B685B68002B12D07B6884
:103F00005B68B3F5807F0DD07B685B68B3F5007F9D
:103F100008D07B685B68B3F5407F03D074216348A9
:103F2000FCF734FB624BDB6903F08053002B0DD1AF
:103F30005F4A5F4BDB6943F08053D3615C4BDB69C5
:103F400003F08053BB60BB680123FB75594B1B68B2
:103F500003F48073002B18D1564A564B1B6843F468
:103F600080731360FCF7D6FD386108E0FCF7D2FDE2
:103F700002463B69D31A642B01D9032392E04D4BCF
:103F80001B6803F48073002BF0D0494B1B6A03F4C9
:103F90004073FB60FB68002B2ED07B685B6803F4EA
:103FA0004072FB689A4227D0414B1B6A23F440734E
:103FB000FB60414B01221A603F4B00221A603C4AD1
:103FC000FB681362FB6803F00103002B14D0FCF7BD
:103FD000A1FD38610AE0FCF79DFD02463B69D31A5A
:103FE00041F28832934201D903235BE0304B1B6AD4
:103FF00003F00203002BEED02D492D4B1B6A23F456
:1040000040727B685B6813430B62FB7D012B05D11B
:10401000274A274BDB6923F08053D3617B681B68F9
:1040200003F00203002B1FD07B689B68002B12D08B
:104030007B689B68B3F5804F0DD07B689B68B3F5B8
:10404000004F08D07B689B68B3F5404F03D0B9217F
:104050001648FCF79BFA1649154B5B6823F440425F
:104060007B689B6813434B607B681B6803F01003FD
:10407000002B16D07B68DB68B3F5800F08D07B6817
:10408000DB68002B04D040F215110848FCF77EFADB
:104090000749074B5B6823F480027B68DB681343A6
:1040A0004B60002318461837BD4680BDC4B00008D9
:1040B00000100240007000404004424280B582B0CF
:1040C00000AF78607B68002B01D1012393E07B680F
:1040D0001B684B4A934213D07B681B68B3F1804F37
:1040E0000ED07B681B68474A934209D07B681B68E7
:1040F000454A934204D040F213114448FCF746FA73
:104100007B689B68002B14D07B689B68102B10D0B9
:104110007B689B68202B0CD07B689B68402B08D069
:104120007B689B68602B04D04FF48A713748FCF79A
:104130002DFA7B681B69002B0ED07B681B69B3F5D9
:10414000807F09D07B681B69B3F5007F04D040F203
:1041500015112E48FCF71AFA7B689B69002B08D0D2
:104160007B689B69802B04D04FF48B712748FCF748
:104170000DFA7B6893F83D30DBB2002B06D17B68EB
:10418000002283F83C20786800F042F87B68022225
:1041900083F83D207B681A687B6804331946104613
:1041A00000F0D8F97B68012283F846207B68012261
:1041B00083F83E207B68012283F83F207B68012240
:1041C00083F840207B68012283F841207B6801222C
:1041D00083F842207B68012283F843207B68012218
:1041E00083F844207B68012283F845207B68012204
:1041F00083F83D20002318460837BD4680BD00BF28
:10420000002C0140000400400008004014B10008E8
:1042100080B483B000AF786000BF0C37BD4680BC6F
:104220007047000080B584B000AF78607B681B6881
:104230002E4A934213D07B681B68B3F1804F0ED097
:104240007B681B682A4A934209D07B681B68294A0D
:10425000934204D040F2CF112748FCF797F97B68CE
:1042600093F83D30DBB2012B01D001233AE07B68AB
:10427000022283F83D207B681B687A681268D26846
:1042800042F00102DA607B681B68184A93420ED044
:104290007B681B68B3F1804F09D07B681B68144AA8
:1042A000934204D07B681B68124A934211D17B6809
:1042B0001B689B6803F00703FB60FB68062B10D0AC
:1042C0007B681B687A681268126842F001021A6003
:1042D00007E07B681B687A681268126842F0010286
:1042E0001A60002318461037BD4680BD002C0140DF
:1042F000000400400008004014B1000880B582B0FE
:1043000000AF78607B681B681B6903F00203022B17
:1043100022D17B681B68DB6803F00203022B1BD1F0
:104320007B681B686FF002021A617B6801221A77B2
:104330007B681B689B6903F00303002B03D078683C
:1043400000F0EDF805E0786800F0E0F8786800F03B
:10435000EFF87B6800221A777B681B681B6903F003
:104360000403042B22D17B681B68DB6803F0040381
:10437000042B1BD17B681B686FF004021A617B68F9
:1043800002221A777B681B689B6903F44073002B39
:1043900003D0786800F0C3F805E0786800F0B6F85C
:1043A000786800F0C5F87B6800221A777B681B6884
:1043B0001B6903F00803082B22D17B681B68DB68AC
:1043C00003F00803082B1BD17B681B686FF0080201
:1043D0001A617B6804221A777B681B68DB6903F02B
:1043E0000303002B03D0786800F099F805E07868A3
:1043F00000F08CF8786800F09BF87B6800221A7750
:104400007B681B681B6903F01003102B22D17B68AB
:104410001B68DB6803F01003102B1BD17B681B6843
:104420006FF010021A617B6808221A777B681B689C
:10443000DB6903F44073002B03D0786800F06FF859
:1044400005E0786800F062F8786800F071F87B6841
:1044500000221A777B681B681B6903F00103012B9C
:104460000ED17B681B68DB6803F00103012B07D1C9
:104470007B681B686FF001021A617868FCF770F8BE
:104480007B681B681B6903F08003802B0ED17B685F
:104490001B68DB6803F08003802B07D17B681B68F7
:1044A0006FF080021A61786800F0BFF87B681B68C3
:1044B0001B6903F04003402B0ED17B681B68DB684F
:1044C00003F04003402B07D17B681B686FF040026C
:1044D0001A61786800F035F87B681B681B6903F087
:1044E0002003202B0ED17B681B68DB6803F02003C0
:1044F000202B07D17B681B686FF020021A61786857
:1045000000F08AF800BF0837BD4680BD80B483B094
:1045100000AF786000BF0C37BD4680BC704780B4E8
:1045200083B000AF786000BF0C37BD4680BC7047D9
:1045300080B483B000AF786000BF0C37BD4680BC4C
:10454000704780B483B000AF786000BF0C37BD46C1
:1045500080BC704780B485B000AF786039607B68FC
:104560001B68FB607B68294A93420BD07B68B3F1E0
:10457000804F07D07B68264A934203D07B68254A48
:10458000934208D1FB6823F07003FB603B685B68D3
:10459000FA681343FB607B681C4A93420BD07B682C
:1045A000B3F1804F07D07B68194A934203D07B68F0
:1045B000184A934208D1FB6823F44073FB603B68C0
:1045C000DB68FA681343FB60FB6823F080023B68FA
:1045D0005B691343FB607B68FA681A603B689A6802
:1045E0007B68DA623B681A687B689A627B68074A74
:1045F000934203D13B681A697B681A637B68012286
:104600005A6100BF1437BD4680BC7047002C014082
:10461000000400400008004080B483B000AF786020
:1046200000BF0C37BD4680BC704780B483B000AF7C
:10463000786000BF0C37BD4680BC704780B582B043
:1046400000AF78607B68002B01D1012392E07B688A
:104650009B69002B2CD07B681B68484A93420ED084
:104660007B681B68464A934209D07B681B68454AB1
:10467000934204D04FF4B6714348FBF787FF7B6841
:104680009B69002B28D07B689B69B3F5807F23D082
:104690007B689B69B3F5007F1ED07B689B69B3F58F
:1046A000407F19D040F26D113748FBF76FFF13E0E0
:1046B0007B681B68314A93420ED07B681B68304A86
:1046C000934209D07B681B682E4A934204D040F283
:1046D00071112D48FBF75AFF7B689B68002B09D0AE
:1046E0007B689B68B3F5805F04D040F27311264865
:1046F000FBF74CFF7B6893F83D30DBB2002B06D113
:104700007B68002283F83C207868FCF79DF87B6882
:10471000242283F83D207B681B687A681268D2687F
:1047200022F40052DA60786800F074FD7B681B6840
:104730007A681268126922F490421A617B681B68D9
:104740007A681268526922F02A025A617B681B68F3
:104750007A681268D26842F40052DA607B680022FC
:104760001A647B68202283F83D207B68202283F82E
:104770003E20002318460837BD4680BD0038014062
:1047800000440040004800404CB1000880B586B0AD
:1047900000AFF860B9601346FB80FB6893F83D30CA
:1047A000DBB2202B53D1BB68002B02D0FB88002B3F
:1047B00001D101234CE0FB6893F83C30012B01D17F
:1047C000022345E0FB68012283F83C20BA68FB68BD
:1047D0001A62FB68FA889A84FB68FA88DA84FB68B4
:1047E00000221A64FB68212283F83D20FB685B6B82
:1047F000194A9A62FB685B6B184ADA62FB685B6B6A
:10480000174A1A63FB685B6B00225A6307F10803BF
:104810007B61FB68586B7B691968FB681B68043314
:104820001A46FB88FCF78CFBFB681B686FF04002A4
:104830001A60FB68002283F83C20FB681B68FA685A
:104840001268526942F080025A61002300E002239C
:1048500018461837BD4680BDB74C0008094D000802
:10486000F14D000880B586B000AFF860B96013461E
:10487000FB80FB6893F83E30DBB2202B3CD1BB6859
:10488000002B02D0FB88002B01D1012335E0FB680F
:1048900093F83C30012B01D102232EE0FB6801226A
:1048A00083F83C20FB6801221A63FB881A46B9682A
:1048B000F86800F0E7FA0346FB75FB7D002B19D181
:1048C000FB681B6B012B13D100233B61FB681B684A
:1048D0001B683B61FB681B685B683B613B69FB686D
:1048E0001B68FA681268D26842F01002DA6001E0D0
:1048F0000123FB75FB7D00E0022318461837BD46F7
:1049000080BD000080B58AB000AF78607B681B680E
:104910001B687B627B681B68DB683B627B681B688B
:104920005B69FB610023BB6100237B617B6A03F051
:104930000F03BB61BB69002B0DD17B6A03F0200321
:10494000002B08D03B6A03F02003002B03D07868CB
:1049500000F0B7FB7CE1BB69002B00F0B180FB6984
:1049600003F00103002B05D13B6A03F49073002B85
:1049700000F0A6807B6A03F00103002B0AD03B6A9B
:1049800003F48073002B05D07B681B6C43F001029D
:104990007B681A647B6A03F00403002B0AD0FB696E
:1049A00003F00103002B05D07B681B6C43F002026F
:1049B0007B681A647B6A03F00203002B0AD0FB6950
:1049C00003F00103002B05D07B681B6C43F004024D
:1049D0007B681A647B6A03F00803002B0FD03B6AE4
:1049E00003F02003002B04D1FB6903F00103002B2B
:1049F00005D07B681B6C43F008027B681A647B68F7
:104A00001B6C002B00F01F817B6A03F02003002B3E
:104A100007D03B6A03F02003002B02D0786800F037
:104A200050FB7B681B685B6903F04003002B14BFDD
:104A300001230023DBB27B617B681B6C03F008035E
:104A4000002B02D17B69002B31D0786800F093FAFB
:104A50007B681B685B6903F04003002B23D07B68F5
:104A60001B687A681268526922F040025A617B68BA
:104A70009B6B002B13D07B689B6B774A5A637B68D8
:104A80009B6B1846FCF704FB0346002B16D07B6893
:104A90009B6B5B6B7A68926B104698470EE0786868
:104AA00000F000F90AE0786800F0FCF806E07868A9
:104AB00000F0F8F87B6800221A64C4E000BFC2E08E
:104AC0007B681B6B012B40F0A1807B6A03F0100315
:104AD000002B00F09B803B6A03F01003002B00F0DA
:104AE00095800023FB607B681B681B68FB607B680C
:104AF0001B685B68FB60FB687B681B685B6903F095
:104B00004003002B4ED07B689B6B1B685B687B82ED
:104B10007B8A002B00F099807B689B8D7A8A9A4271
:104B200080F093807B687A8ADA857B689B6B9B69CF
:104B3000202B2BD07B681B687A681268D26822F41D
:104B40008072DA607B681B687A681268526922F0AA
:104B500001025A617B681B687A681268526922F008
:104B600040025A617B68202283F83E207B68002245
:104B70001A637B681B687A681268D26822F0100298
:104B8000DA607B689B6B1846FCF748FA7B689A8D65
:104B90007B68DB8D9BB2D31A9BB21946786806F00E
:104BA000B9F852E07B689A8D7B68DB8D9BB2D31A93
:104BB0003B827B68DB8D9BB2002B48D03B8A002B6D
:104BC00045D07B681B687A681268D26822F49072BC
:104BD000DA607B681B687A681268526922F0010209
:104BE0005A617B68202283F83E207B6800221A638A
:104BF0007B681B687A681268D26822F01002DA605B
:104C00003B8A1946786806F085F820E07B6A03F055
:104C10008003002B08D03B6A03F08003002B03D0F5
:104C2000786800F0E8F913E07B6A03F04003002B9A
:104C30000ED03B6A03F04003002B09D0786800F0E7
:104C400028FA00BF04E000BF02E000BF00E000BFA0
:104C50002837BD4680BD00BFCF4F000880B483B069
:104C600000AF786000BF0C37BD4680BC704780B491
:104C700083B000AF786000BF0C37BD4680BC704782
:104C800080B483B000AF786000BF0C37BD4680BCF5
:104C9000704780B483B000AF786000BF0C37BD466A
:104CA00080BC704780B483B000AF786000BF0C3721
:104CB000BD4680BC704780B584B000AF78607B682B
:104CC0005B6AFB607B681B681B6803F02003002B9A
:104CD00013D1FB680022DA84FB681B68FA6812684B
:104CE000526922F080025A61FB681B68FA681268F8
:104CF000D26842F04002DA6002E0F868FFF7AEFFE7
:104D000000BF1037BD4680BD80B584B000AF78606D
:104D10007B685B6AFB60F868FFF7A9FF00BF10378C
:104D2000BD4680BD80B584B000AF78607B685B6AAB
:104D3000FB607B681B681B6803F02003002B2AD1F3
:104D4000FB680022DA85FB681B68FA681268D26883
:104D500022F48072DA60FB681B68FA681268526994
:104D600022F001025A61FB681B68FA6812685269F6
:104D700022F040025A61FB68202283F83E20FB6843
:104D80001B6B012B07D1FB681B68FA681268D2689D
:104D900022F01002DA60FB681B6B012B06D1FB6866
:104DA0009B8D1946F86805F0B5FF02E0F868FFF73B
:104DB00067FF00BF1037BD4680BD80B584B000AF2F
:104DC00078607B685B6AFB60FB681B6B012B08D11A
:104DD000FB689B8D5B089BB21946F86805F09AFF4B
:104DE00002E0F868FFF755FF00BF1037BD4680BDF1
:104DF00080B584B000AF78600023FB607B685B6A9D
:104E0000BB60BB681B685B6903F08003002B14BFA9
:104E100001230023DBB2FB60BB6893F83D30DBB2BB
:104E2000212B08D1FB68002B05D0BB680022DA8457
:104E3000B86800F08BF8BB681B685B6903F040033F
:104E4000002B14BF01230023DBB2FB60BB6893F887
:104E50003E30DBB2222B08D1FB68002B05D0BB68AB
:104E60000022DA85B86800F086F8BB681B6C43F056
:104E70001002BB681A64B868FFF714FF00BF103750
:104E8000BD4680BD80B586B000AFF860B9601346FE
:104E9000FB80BA68FB689A62FB68FA889A85FB68AF
:104EA00000221A64FB68222283F83E20FB689B6B79
:104EB000234A9A62FB689B6B224ADA62FB689B6B0F
:104EC000214A1A63FB689B6B00225A6307F10803AF
:104ED0007B61FB68986BFB681B68043319467B6930
:104EE0001A68FB88FCF72CF800233B61FB681B6801
:104EF0001B683B61FB681B685B683B613B69FB6847
:104F0000002283F83C20FB681B68FA681268D268AC
:104F100042F48072DA60FB681B68FA6812685269B2
:104F200042F001025A61FB681B68FA681268526914
:104F300042F040025A61002318461837BD4680BD32
:104F4000254D0008BB4D0008F14D000880B483B02A
:104F500000AF78607B681B687A681268D26822F0BC
:104F6000C002DA607B68202283F83D2000BF0C3746
:104F7000BD4680BC704780B483B000AF78607B686A
:104F80001B687A681268D26822F49072DA607B68D3
:104F90001B687A681268526922F001025A617B68C4
:104FA0001B6B012B07D17B681B687A681268D2687B
:104FB00022F01002DA607B68202283F83E207B68B2
:104FC00000221A6300BF0C37BD4680BC704780B515
:104FD00084B000AF78607B685B6AFB60FB6800228E
:104FE000DA85FB680022DA84F868FFF75BFE00BF11
:104FF0001037BD4680BD80B485B000AF78607B6857
:1050000093F83D30DBB2212B3DD17B689B68B3F533
:10501000805F13D17B681B69002B0FD17B681B6AF3
:10502000FB607B681B68FA681288C2F308025A604A
:105030007B681B6A9A1C7B681A6208E07B681A68A6
:105040007B681B6A581C796808621B7853607B6810
:10505000DB8C9BB2013B9BB27A681946D184002B52
:105060000FD17B681B687A681268D26822F08002D0
:10507000DA607B681B687A681268D26842F0400286
:10508000DA60002300E0022318461437BD4680BCD6
:10509000704780B582B000AF78607B681B687A6823
:1050A0001268D26822F04002DA607B68202283F81E
:1050B0003D207868FFF7D2FD002318460837BD462B
:1050C00080BD80B586B000AF78607B6893F83E30D5
:1050D000DBB2222B40F099807B689B68B3F5805F40
:1050E00017D17B681B69002B13D100237B617B6880
:1050F0009B6A3B617B681B685B689BB2C3F30803D8
:105100009AB23B691A807B689B6A9A1C7B689A6298
:1051100026E07B689B6A7B6100233B617B689B6820
:10512000B3F5805F07D07B689B68002B0AD17B6852
:105130001B69002B06D17B681B685B68DAB27B6950
:105140001A7008E07B681B685B68DBB203F07F03C2
:10515000DAB27B691A707B689B6A5A1C7B689A6218
:105160007B68DB8D9BB2013B9BB27A681946D18587
:10517000002B48D17B681B687A681268D26822F0DD
:105180002002DA607B681B687A681268D26822F4B1
:105190008072DA607B681B687A681268526922F054
:1051A00001025A617B68202283F83E207B681B6BDA
:1051B000012B23D17B6800221A637B681B687A6805
:1051C0001268D26822F01002DA607B681B681B68E4
:1051D00003F01003102B0AD10023FB607B681B68CF
:1051E0001B68FB607B681B685B68FB60FB687B6817
:1051F0009B8D1946786805F08DFD02E07868FFF711
:105200003FFD002302E0002300E002231846183788
:10521000BD4680BD90B585B000AF78607B685B68A7
:105220005F4A934204D940F653615E48FBF7AEF9FA
:105230007B68DB68002B09D07B68DB68B3F5005F17
:1052400004D040F654615748FBF7A0F97B681B690E
:10525000002B0ED07B681B69B3F5806F09D07B688B
:105260001B69B3F5C06F04D040F655614D48FBF79C
:105270008DF97B685A694FF6F3731340002B03D105
:105280007B685B69002B04D140F656614548FBF70B
:105290007DF97B681B687A681268126922F44051B4
:1052A0007A68D2680A431A617B689A687B681B69CE
:1052B0001A437B685B691343BB607B681A687B6831
:1052C0001B68DB6823F4B05323F00C03B9680B436D
:1052D000D3607B681B687A681268526922F4407157
:1052E0007A6892690A435A617B681B682E4A934226
:1052F00003D1FEF765FDF86002E0FEF74DFDF860B2
:105300007B681968FA6813469B0013449A001A4494
:105310007B685B689B00B2FBF3F3244AA2FB032388
:105320005B091801FA6813469B0013449A001A445B
:105330007B685B689B00B2FBF3F21C4BA3FB024350
:105340005B09642404FB03F3D31A1B013233174AAD
:10535000A2FB03235B0903F0F0031844FA68134629
:105360009B0013449A001A447B685B689B00B2FB65
:10537000F3F20E4BA3FB02435B09642404FB03F32B
:10538000D31A1B013233094AA2FB03235B0903F042
:105390000F0303448B6000BF1437BD4690BD00BFB0
:1053A00020AA44004CB10008003801401F85EB5191
:1053B00084B080B483B000AF786007F1140080E857
:1053C0000E00002318460C37BD4680BC04B0704761
:1053D00080B485B000AF78607B680022A3F84420D9
:1053E0004FF43F43FB60FB689AB27B68A3F8402010
:1053F000002318461437BD4680BC704780B485B082
:1054000000AF78604FF43F43FB607B68B3F84030F7
:105410009AB2FB689BB2DB439BB213409AB27B68A3
:10542000A3F84020002318461437BD4680BC7047BF
:1054300080B483B000AF78600B46FB700023184641
:105440000C37BD4680BC704784B080B483B000AFD9
:10545000786007F1140080E80E007B680122A3F851
:1054600040207B680022A3F840207B680022A3F83C
:1054700044207B680022A3F85020002318460C37F4
:10548000BD4680BC04B0704780B49BB000AF78606C
:105490003960002387F867307A683B681B789B0087
:1054A00013441B889BB223F4EC4323F07003A7F84A
:1054B00064303B68DB78032B1FD801A252F823F03D
:1054C000D1540008ED54000803550008DF540008CB
:1054D000B7F8643043F40073A7F8643012E0B7F80B
:1054E000643043F4C063A7F864300BE0B7F864306D
:1054F00043F48063A7F8643004E0012387F8673041
:1055000000E000BF7A683B681B789B001A44B7F83C
:10551000643043F07F4343F47F0343F4004343F09C
:1055200080039BB213807A683B681B789B0013440E
:105530001B889BB223F4E04323F070039AB23B68CC
:105540001B789BB21343A7F85E307A683B681B78E0
:105550009B001A44B7F85E3043F07F4343F47F0367
:1055600043F4004343F080039BB213803B681B7BF2
:10557000002B40F053813B685B78002B00F08E805D
:105580007B68BB657B68B3F850309BB21A46BB6D35
:105590001344BB653B681B781A01BB6D134403F5CC
:1055A00080637B653B68DB885B089BB25B009AB2DB
:1055B0007B6D1A807A683B681B789B0013441B88BC
:1055C000A7F85230B7F8523003F04003002B1DD03B
:1055D0007A683B681B789B0013441B889BB223F4BA
:1055E000E04323F07003A7F850307A683B681B78DB
:1055F0009B001A44B7F8503043F07F4343F47F03D5
:1056000043F4004343F0C0039BB213803B68DB7854
:10561000012B24D07A683B681B789B0013441B88BD
:105620009BB223F4E04323F04003A7F84E30B7F8D1
:105630004E3083F02003A7F84E307A683B681B7821
:105640009B001A44B7F84E3043F07F4343F47F0386
:1056500043F4004343F080039BB2138071E27A6805
:105660003B681B789B0013441B889BB223F4E043E8
:1056700023F04003A7F84C307A683B681B789B0006
:105680001A44B7F84C3043F07F4343F47F0343F4AC
:10569000004343F080039BB2138052E27B68BB64FB
:1056A0007B68B3F850309BB21A46BB6C1344BB64A2
:1056B0003B681B781A01BB6C134403F581637B6460
:1056C0003B68DB885B089BB25B009AB27B6C1A80FC
:1056D0007B683B647B68B3F850309BB21A463B6CE6
:1056E00013443B643B681B781A013B6C134403F280
:1056F0000C43FB633B681B69002B12D1FB6B1B88BF
:105700009BB223F4F8439AB2FB6B1A80FB6B1B88A5
:105710009BB26FEA43436FEA53439AB2FB6B1A8022
:105720002FE03B681B693E2B13D83B681B695B0865
:105730003B663B681B6903F00103002B02D03B6E04
:1057400001333B663B6E9BB29B029AB2FB6B1A80A5
:1057500017E03B681B695B093B663B681B6903F00C
:105760001F03002B02D13B6E013B3B663B6E9BB29D
:105770009B029BB26FEA43436FEA53439AB2FB6BBF
:105780001A807A683B681B789B0013441B887B87D0
:105790007B8F03F48043002B1BD07A683B681B7817
:1057A0009B0013441B889BB223F4E04323F0700357
:1057B0003B877A683B681B789B001A443B8F43F019
:1057C0007F4343F47F0343F4404343F080039BB2A1
:1057D00013807A683B681B789B0013441B889BB23C
:1057E00023F4804323F07003FB86FB8E83F4805305
:1057F000FB86FB8E83F40053FB867A683B681B783C
:105800009B001A44FB8E43F07F4343F47F0343F431
:10581000004343F080039BB2138092E17A683B68B7
:105820001B789B0013441B889BB223F4E04323F0B6
:105830007003BB867A683B681B789B001A44BB8E5A
:1058400043F07F4343F47F0343F4014343F0800379
:105850009BB213807B683B637B68B3F850309BB28C
:105860001A463B6B13443B633B681B781A013B6B46
:10587000134403F58063FB623B681B895B089BB2A2
:105880005B009AB2FB6A1A807B68BB627B68B3F8E4
:1058900050309BB21A46BB6A1344BB623B681B780C
:1058A0001A01BB6A134403F581637B623B685B8921
:1058B0005B089BB25B009AB27B6A1A803B685B789C
:1058C000002B40F091807A683B681B789B00134462
:1058D0001B887B847B8C03F48043002B1BD07A686D
:1058E0003B681B789B0013441B889BB223F4E04366
:1058F00023F070033B847A683B681B789B001A4452
:105900003B8C43F07F4343F47F0343F4404343F035
:1059100080039BB213807A683B681B789B0013441A
:105920001B88FB83FB8B03F04003002B1BD07A68A2
:105930003B681B789B0013441B889BB223F4E04315
:1059400023F07003BB837A683B681B789B001A4482
:10595000BB8B43F07F4343F47F0343F4004343F0A6
:10596000C0039BB213807A683B681B789B0013448A
:105970001B889BB223F4804323F070037B837B8BD3
:1059800083F480537B837B8B83F400537B837A681F
:105990003B681B789B001A447B8B43F07F4343F4A6
:1059A0007F0343F4004343F080039BB213807A6883
:1059B0003B681B789B0013441B889BB223F4E04395
:1059C00023F040033B837A683B681B789B001A44B2
:1059D0003B8B43F07F4343F47F0343F4004343F0A6
:1059E00080039BB21380ACE07A683B681B789B0015
:1059F00013441B88FB82FB8A03F48043002B1BD0DB
:105A00007A683B681B789B0013441B889BB223F485
:105A1000E04323F07003BB827A683B681B789B00ED
:105A20001A44BB8A43F07F4343F47F0343F440436B
:105A300043F080039BB213807A683B681B789B001D
:105A400013441B887B827B8A03F04003002B1BD00E
:105A50007A683B681B789B0013441B889BB223F435
:105A6000E04323F070033B827A683B681B789B001D
:105A70001A443B8A43F07F4343F47F0343F40043DB
:105A800043F0C0039BB213803B68DB78012B20D02E
:105A90007A683B681B789B0013441B889BB223F4F5
:105AA000E04323F04003FB81FB8983F02003FB816B
:105AB0007A683B681B789B001A44FB8943F07F435C
:105AC00043F47F0343F4004343F080039BB213800D
:105AD0001BE07A683B681B789B0013441B889BB2D1
